:020000040800F2
:10000000C0040020AD010008171700084B150008B8
:1000100015170008E1050008471A00080000000055
:100020000000000000000000000000001B17000896
:10003000E305000800000000191700081D1700085C
:10004000C7010008C7010008C7010008C701000870
:10005000C7010008C7010008E5050008C70100083E
:10006000C7010008C7010008C7010008C701000850
:10007000C7010008C7010008C7010008C701000840
:10008000C7010008C7010008C70100080000000000
:10009000000000000000000000000000C701000890
:1000A000C7010008C7010008C7010008C701000810
:1000B000F5170008C7010008C7010008C7010008BC
:1000C000C7010008C7010008C7010008C7010008F0
:1000D000C7010008C7010008C701000800000000B0
:1000E000C7010008C7010008C701000800000000A0
:1000F000000000000000000000000000C701000830
:1001000000000000C7010008C7010008C70100087F
:1001100000000000000000000000000000000000DF
:10012000C7010008C7010008C7010008C70100088F
:10013000C7010008000000000000000000000000EF
:10014000000000000000000000000000C7010008DF
:10015000C7010008C7010008C7010008C70100085F
:10016000C7010008C70100080000000000000000EF
:10017000000000000000000000000000000000007F
:1001800000000000C701000800000000000000009F
:10019000C7010008C7010008DFF80CD000F07AF9A9
:1001A00000480047BD1A0008C004002006488047E8
:1001B00006480047FEE7FEE7FEE7FEE7FEE7FEE74C
:1001C000FEE7FEE7FEE7FEE7A11700089901000839
:1001D0002DE9F05F0546002092469B46884606467C
:1001E000814640241BE0284641464746224600F00F
:1001F000E3F853465A46C01A914110D311461846A7
:10020000224600F0CAF82D1A67EB01084F46224635
:100210000120002100F0C1F817EB00094E41201E1B
:10022000A4F10104DFDC484631462A464346BDE8D6
:10023000F09FD2B201E000F8012B491EFBD27047BB
:100240000022F6E710B513460A4604461946FFF7A2
:10025000F0FF204610BD2DE9FE4F81EA030404F0B3
:10026000004421F0004100944FF0000B23F00043C4
:1002700050EA01045ED052EA03045BD0C3F30A548F
:10028000C1F30A552C44A4F2F3340194A0FB0254A8
:10029000C1F3130141F48011C3F3130343F480133A
:1002A00001FB024400FB034E840A970A44EA81548E
:1002B00047EA8357A4FB076802958D0A05FB07856B
:1002C0004FEA932C04FB0C542705029D4FEA065875
:1002D00047EA1637B5EB08056EEB070C870E920E52
:1002E00047EA811742EA8312A7FB0201B6EB0B0132
:1002F00064EB00042B0D43EA0C335E1844EB1C50F6
:10030000DA465146E7FB0201C5F313044FEA0B330B
:1003100043EA14534FEA0432019C43EA0603A4F172
:100320000C040294009CCDE900B400F064F803B022
:10033000BDE8F08F00200146F9E70EB5C10F80EA55
:10034000E0700844CA07002140F233438DE80E00F4
:100350000A460B4600F04FF803B000BD70B5C1F37C
:100360000A5201F000450024C1F3130140F2FF33AB
:1003700041F480119A4201DA002070BD40F233430B
:100380009A42A2F2334203DC524200F015F800E038
:1003900090402C43F1D0404270BD202A04DB203A2B
:1003A00000FA02F1002070479140C2F1200320FAC8
:1003B00003F3194390407047202A04DB203A21FAC6
:1003C00002F00021704721FA02F3D040C2F120026E
:1003D000914008431946704710B5141E73F100048C
:1003E00008DA401C41F1000192185B411A4301D127
:1003F00020F0010010BD2DE9F04D92469B4611B151
:10040000B1FA81F202E0B0FA80F220329046FFF7B2
:10041000C4FF04460F4640EA0A0041EA0B01534676
:100420005A46084313D0114653EA010019D0C8F1C7
:1004300040025046FFF7C0FF05460E46504659465B
:100440004246FFF7AAFF084305D0012004E02046FA
:100450003946BDE8F08D0020054346EAE0762C439E
:1004600037430A986305E40AA0EB08000022FD0A5E
:1004700044EA47540A3002D500200146E9E7010565
:1004800010196941DDE9084500196941BDE8F04DE1
:10049000A2E70000064C074D06E0E06840F00103CB
:1004A00094E8070098471034AC42F6D3FFF778FE83
:1004B000FC1C00081C1D0008464910B54A6822F4BF
:1004C00040324A604A6843681A434A6001684A6891
:1004D00022F480724A6001684A68036942EA032292
:1004E0004A6001684A6822F040724A6001684A68BE
:1004F00083681A434A6001688A6822F400628A604D
:1005000001688A68C3681A438A60816A6FF0706202
:10051000D14201688A6822F070628A6001688A6844
:100520000CD0836A1A438A6001688A6822F04052BC
:100530008A6001688A68C36A1A4301E022F0405267
:100540008A6001688A6822F002028A6001688A680B
:10055000037E42EA43028A6090F820100029016875
:100560004A680FD042F400624A6001684A6822F487
:1005700060424A6001684A68174C436A04EB43339F
:100580001A4301E022F400624A600168CA6A22F458
:100590007002CA620168CA6A838B104C04EB035371
:1005A0001A43CA6201688A6822F400728A6001688C
:1005B0008A6890F8303042EA43228A6001688A688B
:1005C00022F480628A6001688A68406942EA802079
:1005D000886010BD0023014000E0FFFF0000F0FF35
:1005E000FEE77047012000F0D5B9000078B500247F
:1005F000009490F83C20012A19D0012280F83C2078
:100600000A6807230568092A13D9EE680A3A02EB3B
:10061000420293409E43EE600B788A680A3B03EBEC
:1006200043039A400368DD682A43DA6010E0022041
:1006300078BD2E6902EB420293409E432E610B78F7
:100640008A6803EB43039A4003681D692A431A61D1
:100650004A681F23072A13D205686E6B521E02EBED
:10066000820293409E436E630A8893B20A79521EB7
:1006700002EB820293400268556B2B43536327E0E1
:1006800005680D2A12D22E6BD21F02EB8202934014
:100690009E432E630B790A88DB1F92B203EB830320
:1006A0009A4003681D6B2A431A6311E0EE6A0D3A03
:1006B00002EB820293409E43EE620B790A880D3B67
:1006C00092B203EB83039A400368DD6A2A43DA623D
:1006D0001B4B0568194A9D420AD10D68122D07D19E
:1006E000556825F400055560556845F4800555604A
:1006F00005689D421DD1134D0B68AB4201D0112BF3
:1007000017D1536823F480035360536843F4000304
:1007100053600968A9420CD10B490C4A0968B1FB26
:10072000F2F101EB8101490000E0491E009100292E
:10073000FBD180F83C40002078BD00000023014040
:1007400000200140120000103000002040420F0045
:100750000068C06C704770B504004FF0000503D00E
:10076000206C002610B107E0012070BD204600F08B
:100770001DF8666484F83C60206CC00610D4206CC0
:1007800020F4885040F0020020642046FFF794FED9
:100790006664206C20F0020040F00100206400E05C
:1007A000012584F83C60284670BD000010B586B075
:1007B000044614216846FFF743FD1149206888422A
:1007C0001CD110480021026842F480720260006867
:1007D00000F4807005900B481438026842F0010262
:1007E0000260006800F001000590022000900320E4
:1007F000CDE901016946044800F0D8F806B010BD03
:100800000020014044380240000002402DE9F04140
:10081000044600680D4681684FF0000749050BD576
:100820008068C00508D5206C40F02000206484F862
:100830003C700120BDE8F08100F08EF906460FE023
:10084000681C0DD025B100F087F9801BA84207D99C
:10085000206C40F00400206484F83C700320E9E739
:10086000206800688007EBD521686FF012000860EF
:10087000206C40F4007020642068816811F0405FB3
:1008800013D1217E89B9C16A11F4700F02D080683A
:1008900040050AD4206C20F480702064206CC004D1
:1008A00003D4206C40F0010020640020C2E7000067
:1008B00018B50021009190F83C20012A07D00122B0
:1008C00080F83C2002689368DB0702D011E0022028
:1008D00018BD936843F001039360204A204B1268CF
:1008E000B2FBF3F202EB420200E0521E0092002A39
:1008F000FBD102689368DB072DD0036C40F20164E2
:10090000A34343F48073036453685B0505D5036C0C
:1009100023F4005343F480530364036CDB0404D5D5
:10092000436C23F00603436400E0416480F83C100C
:100930000C496FF02203136049680068C90602D0B1
:100940000949884207D1816811F0405F03D181686D
:1009500041F080418160002018BD0000300000207F
:1009600040420F00002301400020014010B501214A
:10097000064800F0DFF8012806D10122BDE810404A
:100980000421034800F0E2B810BD0000000002405E
:10099000000C0240044910B50A68024202D0086007
:1009A000FFF7E4FF10BD0000143C01402DE9F84FB3
:1009B000DFF860B100224FF001084FF0030A4FF05A
:1009C0000F090BF1040E00BF0B6808FA02F4234074
:1009D000A3426ED14D68022D01D0122D0ED1D50843
:1009E00000EB850CDCF820505607F70E09FA07F6E5
:1009F000B5430E69BE402E43CCF820600668550012
:100A00000F790AFA05FC07F0030726EA0C06AF4047
:100A1000374307604E68012E05D0022E03D0112EF9
:100A200001D0122E0ED18668CF6826EA0C06AF40A0
:100A3000374387604668A6430C79C4F3001494409A
:100A400034434460C6688C6826EA0C06AC403443E4
:100A5000C4604C68E40056D52F4C256845F48045A9
:100A60002560246822F0030504F4804400942B4C94
:100A70002E19D6F8084895072F0F09FA07F5AC4349
:100A8000274DA84201D1002515E0264DA84201D1ED
:100A9000012510E0244DA84201D102250BE0234D91
:100AA000A84201D1032506E0214DA84202D1042528
:100AB00001E028E00725BD402543C6F80858DBF8CB
:100AC00000405D464E689C43F60300D51C432C60F5
:100AD000DEF8004075464E689C43B60300D51C43C3
:100AE0002C600C4D08352C684E689C43F60200D5EE
:100AF0001C432C60074D0C352C684E689C43B60295
:100B000000D51C432C60521C102AFFF45DAFBDE8D9
:100B1000F88F0000003C01404438024000300140A2
:100B2000000002400004024000080240000C0240A5
:100B3000001002400069084000D00120704742695F
:100B400031EA020200D10904816170470AB1816172
:100B500070470904FBE70000014880687047000007
:100B600024000020024881680278114481607047A7
:100B7000240000200B4810B5016841F400710160A9
:100B8000016841F480610160016841F48071016095
:100B9000032000F06FF8002000F006F800F024F8C1
:100BA000002010BD003C024070B50D4D04464FF4CE
:100BB0007A712878B1FBF0F00A490968B1FBF0F0CE
:100BC00000F0C0FA48B9102C07D200222146501E6E
:100BD00000F030F800206C6070BD012070BD000096
:100BE00024000020300000200A4808B5016841F4C4
:100BF00080410160006800F4804000900548001FBB
:100C0000016841F080510160006800F08050009060
:100C100008BD000044380240002809DB00F01F0234
:100C2000012191404009800000F1E020C0F800114E
:100C300070470000F0B40E4B1B680C46C3F3022350
:100C4000C3F10705042D00D90425191D072901D278
:100C5000002300E0DB1E012606FA05F1491E2140B3
:100C600099409E40761E16403143F0BC00F0ECBE29
:100C70000CED00E0064900F0070208684FF6FF039C
:100C8000184040EA0220034A104308607047000001
:100C90000CED00E00000FA052DE9F0470E460500D6
:100CA00065D0DFF81481D8F80000F7B200F00F002B
:100CB000B04207D288F80070D8F8000000F00F00AA
:100CC000B04254D128683D4C810712D5400703D566
:100CD000206840F4E05020602878000703D52068A1
:100CE00040F4604020602068A96820F0F0000843CC
:100CF00020602878C0072DD030496868083901285D
:100D000012D0022813D0032811D0096889070029BE
:100D10002DDA216821F0030101432160FFF71CFF58
:100D2000814641F2883A0EE009688903EFE70968D5
:100D30008901ECE7FFF710FFA0EB0901514502D94B
:100D40000320BDE8F0872068696800F00C00B0EB74
:100D5000810FEFD1D8F80010404601F00F01B142E9
:100D600007D90770006800F00F00B04201D00120E1
:100D7000E7E72878400705D52068E96820F4E050C7
:100D8000084320602878000706D52068296920F4E8
:100D9000604040EAC100206000F016F82168084A6F
:100DA000C1F30311515CC840064908600020FFF7F9
:100DB000FBFE0020C5E70000003C0240083802406E
:100DC000EC1C000830000020154810B5006810F039
:100DD0000C02144813D04110042A0FD0082A0ED157
:100DE0000F4C241F2268236802F03F025B0207D5E4
:100DF0002068C0F38810A0FB010106E0084610BD82
:100E00002168C1F38811A1FB00010023FFF7E0F97D
:100E10002168C1F30141491C4900B0FBF1F010BD4C
:100E2000083802400024F4002DE9F84F050076D080
:100E30002878DFF8F8B2BE4CC00749D0DBF80010C4
:100E40005846C1F38101012908D00068C0F3810030
:100E500002280AD1201D0068400206D520688003C0
:100E600036D568680028E2D032E06868B0F5803F87
:100E700010D0B0F5A02F206810D020F48030206072
:100E8000206820F4802020606868A0B1FFF764FE2D
:100E900006460CE0206840F48030F4E740F48020FF
:100EA0002060F7E7FFF758FE801B642873D820689E
:100EB0008003F7D50CE0FFF74FFE064605E000BFC4
:100EC000FFF74AFE801B6428F0D820688003F7D41F
:100ED0002878DFF8608280074FF000093ED5DBF804
:100EE0000010584611F00C0F09D00068C0F38100C3
:100EF00002280BD18D48001F0068400206D42068EC
:100F0000800715D5E868012809D111E0E868B8B173
:100F10000120C8F80000FFF71FFE064605E002E1C9
:100F2000FFF71AFE801B0228C0D820688007F7D57B
:100F30002068296920F0F80040EAC10020600DE037
:100F4000C8F80090FFF708FE064604E0FFF704FE2D
:100F5000801B02281FD820688007F7D42878000754
:100F600022D5724E744869696C3671B101210160F5
:100F7000FFF7F2FD074604E0FFF7EEFDC01B022875
:100F800009D830688007F7D50EE0C0F80090FFF769
:100F9000E3FD074605E083E0FFF7DEFDC01B022806
:100FA0007ED830688007F7D42878400768D5DFF806
:100FB0007CA100270AF1380ADAF80000C0000BD43F
:100FC000DAF8001041F08051CAF80010DAF8000099
:100FD000012700F080500090584E3068C00510D4B2
:100FE000306840F480703060FFF7B6FD009005E097
:100FF000FFF7B2FD0099401A022851D83068C005A9
:10100000F6D54A4EA868683601280FD00528306802
:1010100010D020F001003060306820F00400306013
:10102000A868B8B1FFF798FD00900FE0306840F075
:101030000100F4E740F004003060F7E7FFF78CFDB3
:101040000099411A41F28830814264D830688007A3
:10105000F4D50EE0FFF780FD009007E0FFF77CFD80
:101060000099411A41F28830814254D83068800793
:10107000F4D42FB1DAF8001021F08051CAF8001032
:10108000A869C0B3DBF80010C1F3810102294AD07E
:101090000228484607D0C8F86000FFF75DFD00E071
:1010A00039E005463AE04746C8F86000FFF754FDCE
:1010B000064604E0FFF750FD801B02282BD820686D
:1010C0008001F7D4D5E907010843A96A1C4A4908F9
:1010D00002EB01416A6A41EA8211084395F82C103B
:1010E00040EA01611148001F016001203866FFF7E6
:1010F00033FD054605E014E0FFF72EFD401B0228F6
:1011000009D820688001F7D50BE000BFFFF724FD68
:10111000401B022802D90320BDE8F88F2068800117
:10112000F4D40020F8E70120F6E700000838024078
:101130000038024000004742800E474200700040E5
:101140000000FFFF10B5401EB0F1807F01D30120E9
:1011500010BD4FF0E02460610F21601700F074FCB7
:101160000020A06107202061002010BD704770475B
:1011700070B590F83C20012A19D0012400F83C4FAA
:101180000222427050F83C3C5A689D6822F070067A
:101190000A684968324325F0800529435A6050F8AF
:1011A0003C2C9160447000210170084670BD022003
:1011B00070BD10B5040003D094F83D0010B107E0F5
:1011C000012010BD002084F83C00204600F00CF8FF
:1011D000022084F83D00211D206800F011FB012051
:1011E00084F83D00002010BD08B50068B0F1804FC4
:1011F00012D10A48016841F0010101600068002233
:1012000000F00100009011461C20FFF713FDBDE81F
:1012100008401C20FFF700BD08BD00004038024018
:101220000168CA6842F00102CA600068816801F082
:101230000701062903D0016841F001010160002087
:10124000704770B5044690F83C00012817D001257E
:1012500084F83C50022084F83D002068826822F027
:10126000770222F47F4282600868502830D00DDC7B
:1012700020284DD005DC98B310283BD148E002204F
:1012800070BD302844D0402834D139E0602828D0BF
:10129000702806D0B0F5805F2CD0B0F5005F29D162
:1012A0000AE0CB68D1E90121206800F0F5FA206856
:1012B000816841F0770109E0CB68D1E9012120681C
:1012C00000F0EAFA2068816841F48041816011E011
:1012D000CA684968206800F093FB5021206807E045
:1012E00016E0CA684968206800F09BFB602120680E
:1012F00000F0DCFA84F83D50002084F83C0070BD1A
:10130000CA684968206800F07BFB40212068EFE74D
:10131000226801461046EBE7704770B50446006846
:1013200001694FF00005C943890715D4C168C94355
:10133000890711D4E91E01610120207720688069A6
:101340008007204602D0FFF7E7FF04E000F0C3F873
:10135000204600F0DDF8257720680169C943490778
:1013600017D4C168C943490713D46FF00401016160
:10137000022020772068806910F4407F204602D048
:10138000FFF7CAFF04E000F0A6F8204600F0C0F81E
:10139000257720680169C943090716D4C168C94384
:1013A000090712D46FF0080101610420207720683A
:1013B000C0698007204602D0FFF7AEFF04E000F0CE
:1013C0008AF8204600F0A4F8257720680169C9430F
:1013D000C90617D4C168C943C90613D46FF01001F8
:1013E0000161082020772068C06910F4407F204602
:1013F00002D0FFF791FF04E000F06DF8204600F006
:1014000087F8257720680169C943C90708D1C168F1
:10141000C943C90704D1891E0161204600F07AF84A
:1014200020680169C943090609D4C168C94309068E
:1014300005D46FF0800101612046FFF797FE206818
:101440000169C943490609D4C168C943490605D49D
:101450006FF040010161204600F076F820680169D4
:10146000C94389060BD4C168C943890607D46FF004
:10147000200101612046BDE87040FFF778BE70BDD5
:1014800070B5044690F83C0001280DD0012584F881
:101490003C50022084F83D0042B1042A0AD0082AB8
:1014A0000CD00C2A11D10DE0022070BD206800F094
:1014B00005FA0AE0206800F029FA06E0206800F04A
:1014C00051FA02E0206800F079FA84F83D500020DB
:1014D00084F83C0070BD704710B5040003D094F848
:1014E0003D0010B107E0012010BD002084F83C0051
:1014F000204600F00CF8022084F83D00211D2068F1
:1015000000F07EF9012084F83D00002010BD7047F6
:101510007047000010B50068B0F1804F0ED1084848
:101520000078C0070AD1074C08212046FFF707FBC7
:101530002046BDE810404021FFF701BB10BD000070
:1015400000000020000C02407047FEE77FB5002439
:10155000134800940194029410490394C0E90014C4
:10156000012505618460057680F820400D49C0E9B9
:101570000A140226C661C46080F830404561FFF756
:10158000EAF80095CDE9015469460548FFF72EF8C1
:10159000694603480196FFF729F87FBD0020014006
:1015A000340000200100000F2DE9F04387B0142122
:1015B0006846FEF745FE35480024016841F0800189
:1015C0000160016801F080010591016841F00101AD
:1015D0000160016801F001010591016841F0080115
:1015E0000160016801F008010591016841F0040102
:1015F00001600068264F00F004004FF27C06059061
:10160000002231463846FFF7A1FADFF88880002231
:1016100080214046FFF79AFA01251F480095CDE941
:101620000104DFF8789069464846FFF7BFF9009655
:10163000CDE90154694638460394FFF7B7F94FF4F2
:101640000460CDE90004694640460294FFF7AEF914
:1016500080200090CDE90154694640460394FFF78D
:10166000A5F94FF40240CDE90004694648460294CA
:10167000FFF79CF9002211460620FFF7DBFA06204F
:10168000FFF7CAFA07B0BDE8F08300003038024027
:10169000000C02400008024000001110000002404F
:1016A00010B58EB000240794089409940A940B9402
:1016B0001C2168460C94FEF7C3FD15484FF080418D
:1016C000016048F69F41C0E901144FF47A71C0E906
:1016D00003148461FFF76DFD4FF48050079007A954
:1016E0000B48FFF7AEFD0A48FFF7F6FE0B940BA977
:1016F00007480C94FFF73CFD0094019402940022EB
:10170000694603480494FFF7BBFE0EB010BD00000D
:101710007C000020FEE7704770477047FFF722BA51
:1017200030B593B030216846FEF78AFD14210CA82D
:10173000FEF786FD18480025016841F080510160E0
:10174000006800F0805011901448016841F4404155
:1017500001600068022400F44040119001200090D4
:10176000000401908001CDE9064008200890C820BF
:10177000CDE9090404200B906846FFF755FB0F20C4
:10178000CDE90C049020CDE90E0500210CA81095A0
:10179000FFF782FA13B030BD4038024000700040BD
:1017A0001048016841F4700101600F48016841F080
:1017B000010101600C4A00210832116002680B4BE4
:1017C0001A400260031D0A4A1A60026822F480224D
:1017D000026005480C3001600249580680390860F3
:1017E0007047000088ED00E000380240FFFFF6FE81
:1017F000103000240148FFF790BD00007C0000205D
:10180000F0B502681D4B1E4C9F031E4D1E4E9842A4
:1018100007D0B84205D0A04203D0A84201D0B042C0
:1018200004D122F0700C4A6842EA0C02984210D0AF
:10183000B8420ED0A0420CD0A8420AD0B04208D084
:10184000124CA04205D0124CA04202D0114CA04232
:1018500003D122F44074CA6822434C6922F080020A
:10186000224302608A68C2620A688262984201D199
:101870000969016301214161F0BD000000000140E0
:101880000004004000080040000C004000400140FF
:10189000004401400048014010B5846842EA032238
:1018A00024F47F440A432243826010BD826822F000
:1018B00070020A4342F007018160704730B5026A46
:1018C00022F001020262026A4368846924F073050F
:1018D0000C682C4322F002058A682A430A4DA8426C
:1018E0000BD122F00805CA6823F440732A434D69DE
:1018F00022F004021D438B692B43436084614968D5
:101900004163026230BD00000000014030B5026A50
:1019100022F010020262026A436884690D6824F4AE
:10192000E64444EA05248D6822F0200242EA0512CA
:101930000B4DA8420ED1CD6822F0800242EA05127A
:101940004D6923F4406343EA85038D6922F0400228
:1019500043EA85034360846149688163026230BD64
:101960000000014030B5026A22F480720262036A0C
:101970004268C46923F4007324F073050C682C4397
:101980008D6843EA05230C4DA8420ED1CD6823F49F
:10199000006343EA05234D6922F4405242EA0512EE
:1019A0008D6923F4806342EA05124260C46149688C
:1019B000C163036230BD00000000014030B5026A1F
:1019C00022F480520262046A4268C3690D6823F4FB
:1019D000E64343EA05238D6824F4005444EA0534C1
:1019E000064DA84204D14D6922F4804242EA851294
:1019F0004260C36149680164046230BD0000014077
:101A000010B5036A046A24F001040462846924F0B6
:101A1000F00444EA021423F00A020A4384610262D9
:101A200010BD10B5036A23F0100303628369046AD2
:101A300023F4704343EA023224F0A00343EA011185
:101A40008261016210BDFEE70907090E002804DB70
:101A500000F1E02080F80014704700F00F0000F162
:101A6000E02080F8141D704702E008C8121F08C16A
:101A7000002AFAD170477047002001E001C1121F0F
:101A8000002AFBD17047000070B50B4D00240122E5
:101A900080212846FFF75AF8002280212846FFF7C8
:101AA00055F800E0641C40212846FFF743F8002861
:101AB000F8D1204670BD0000000802402DED048BD7
:101AC00082B0FFF757F8FFF72BFEFFF7E9FDFFF7AE
:101AD0006BFDFFF73BFD7848FFF7A2FBDFF8DC91D9
:101AE000D9F8001021F00101C9F80010744D00224E
:101AF00008212846FFF72AF8002204212846FFF78C
:101B000025F89FED709B9FED718BDFF8C8A1DFF882
:101B1000C8B1DFF8C881724C724E4FF4005700BF55
:101B2000FFF7B2FF6060FEF708FC53EC192BFEF7DD
:101B300092FB53EC182BFEF78EFBFEF70FFCA06018
:101B4000401E132815D22168C8070AD1D9F80020F1
:101B500042F00102C9F80020D9F8000000F00100AD
:101B600000903140012904D1012204212846FEF7CA
:101B7000EDFF4FF400615C48FEF7DCFF68B1FEF753
:101B8000EBFF2169401AA169884206D9FEF7E4FFFC
:101B9000206139462846FEF7D2FF39462846FEF72F
:101BA000C9FF012831D144484838FEF781FE424838
:101BB0004FF0FF314838FEF729FE3F484838FEF71E
:101BC000C7FD00EBC00101EB0010E061584504D2F5
:101BD000012220212846FEF7B9FFE169514504D2D0
:101BE000012210212846FEF7B1FFE169514504D9D1
:101BF000002210212846FEF7A9FFE169594504D9C2
:101C0000002220212846FEF7A1FF4FF40041404664
:101C1000FEF790FF20B1002204212846FEF796FF30
:101C2000FEF79AFFE168401A6169884231D94FF4A2
:101C300000714046FEF77EFF01282AD1FEF78CFF97
:101C4000E06020682062401C2060D9F8001021F07C
:101C50000101C9F80010002208212846FEF776FF8E
:101C6000002240212846FEF771FF00220421284669
:101C7000FEF76CFF002239462846FEF767FF002278
:101C800020212846FEF762FF002210212846FEF799
:101C90005DFF2078C00704D1012211032846FEF71A
:101CA00055FF2068304001287FF43AAF010300223D
:101CB0002846FEF74BFF33E77C0000204038024007
:101CC000000C02409CC420B07268A13F00000000DC
:101CD0000000C03FB8820100A08601000000024061
:101CE0000000002001000080000802400000000009
:101CF0000000000001020304060708091C1D00087B
:101D00000000002034000000681A0008501D000880
:101D1000340000208C040000781A00080100000044
:101D200000000000000000000000000000000000B3
:101D3000F40100002003000000000000000000008B
:101D40000100000010000000000000000024F4006A
:040000050800019955
:00000001FF
